{"abi":[{"type":"constructor","inputs":[{"name":"_tokenAddress","type":"address","internalType":"address"}],"stateMutability":"nonpayable"},{"type":"function","name":"executeTrade","inputs":[{"name":"seller","type":"address","internalType":"address"},{"name":"buyer","type":"address","internalType":"address"},{"name":"cctAmount","type":"uint256","internalType":"uint256"},{"name":"ethPrice","type":"uint256","internalType":"uint256"}],"outputs":[],"stateMutability":"nonpayable"},{"type":"function","name":"getOrder","inputs":[{"name":"index","type":"uint256","internalType":"uint256"}],"outputs":[{"name":"","type":"address","internalType":"address"},{"name":"","type":"address","internalType":"address"},{"name":"","type":"uint256","internalType":"uint256"},{"name":"","type":"uint256","internalType":"uint256"}],"stateMutability":"view"},{"type":"function","name":"getOrderCount","inputs":[],"outputs":[{"name":"","type":"uint256","internalType":"uint256"}],"stateMutability":"view"},{"type":"function","name":"orders","inputs":[{"name":"","type":"uint256","internalType":"uint256"}],"outputs":[{"name":"seller","type":"address","internalType":"address"},{"name":"buyer","type":"address","internalType":"address"},{"name":"cctAmount","type":"uint256","internalType":"uint256"},{"name":"ethPrice","type":"uint256","internalType":"uint256"}],"stateMutability":"view"},{"type":"function","name":"token","inputs":[],"outputs":[{"name":"","type":"address","internalType":"contract IERC20"}],"stateMutability":"view"},{"type":"event","name":"TradeExecuted","inputs":[{"name":"seller","type":"address","indexed":true,"internalType":"address"},{"name":"buyer","type":"address","indexed":true,"internalType":"address"},{"name":"cctAmount","type":"uint256","indexed":false,"internalType":"uint256"},{"name":"ethPrice","type":"uint256","indexed":false,"internalType":"uint256"}],"anonymous":false}],"bytecode":{"object":"0x608060405234801561000f575f5ffd5b50604051610d15380380610d15833981810160405281019061003191906100d4565b805f5f6101000a81548173ffffffffffffffffffffffffffffffffffffffff021916908373ffffffffffffffffffffffffffffffffffffffff160217905550506100ff565b5f5ffd5b5f73ffffffffffffffffffffffffffffffffffffffff82169050919050565b5f6100a38261007a565b9050919050565b6100b381610099565b81146100bd575f5ffd5b50565b5f815190506100ce816100aa565b92915050565b5f602082840312156100e9576100e8610076565b5b5f6100f6848285016100c0565b91505092915050565b610c098061010c5f395ff3fe608060405234801561000f575f5ffd5b5060043610610055575f3560e01c80638d0a5fbb14610059578063a85c38ef14610077578063b9078616146100aa578063d09ef241146100c6578063fc0c546a146100f9575b5f5ffd5b610061610117565b60405161006e9190610707565b60405180910390f35b610091600480360381019061008c919061074e565b610123565b6040516100a194939291906107b8565b60405180910390f35b6100c460048036038101906100bf9190610825565b61019c565b005b6100e060048036038101906100db919061074e565b610572565b6040516100f094939291906107b8565b60405180910390f35b6101016106cb565b60405161010e91906108e4565b60405180910390f35b5f600180549050905090565b60018181548110610132575f80fd5b905f5260205f2090600402015f91509050805f015f9054906101000a900473ffffffffffffffffffffffffffffffffffffffff1690806001015f9054906101000a900473ffffffffffffffffffffffffffffffffffffffff16908060020154908060030154905084565b815f5f9054906101000a900473ffffffffffffffffffffffffffffffffffffffff1673ffffffffffffffffffffffffffffffffffffffff166370a08231866040518263ffffffff1660e01b81526004016101f691906108fd565b602060405180830381865afa158015610211573d5f5f3e3d5ffd5b505050506040513d601f19601f82011682018060405250810190610235919061092a565b1015610276576040517f08c379a000000000000000000000000000000000000000000000000000000000815260040161026d906109af565b60405180910390fd5b815f5f9054906101000a900473ffffffffffffffffffffffffffffffffffffffff1673ffffffffffffffffffffffffffffffffffffffff1663dd62ed3e86306040518363ffffffff1660e01b81526004016102d29291906109cd565b602060405180830381865afa1580156102ed573d5f5f3e3d5ffd5b505050506040513d601f19601f82011682018060405250810190610311919061092a565b1015610352576040517f08c379a000000000000000000000000000000000000000000000000000000000815260040161034990610a64565b60405180910390fd5b5f5f9054906101000a900473ffffffffffffffffffffffffffffffffffffffff1673ffffffffffffffffffffffffffffffffffffffff166323b872dd8585856040518463ffffffff1660e01b81526004016103af93929190610a82565b6020604051808303815f875af11580156103cb573d5f5f3e3d5ffd5b505050506040513d601f19601f820116820180604052508101906103ef9190610aec565b50600160405180608001604052808673ffffffffffffffffffffffffffffffffffffffff1681526020018573ffffffffffffffffffffffffffffffffffffffff16815260200184815260200183815250908060018154018082558091505060019003905f5260205f2090600402015f909190919091505f820151815f015f6101000a81548173ffffffffffffffffffffffffffffffffffffffff021916908373ffffffffffffffffffffffffffffffffffffffff1602179055506020820151816001015f6101000a81548173ffffffffffffffffffffffffffffffffffffffff021916908373ffffffffffffffffffffffffffffffffffffffff160217905550604082015181600201556060820151816003015550508273ffffffffffffffffffffffffffffffffffffffff168473ffffffffffffffffffffffffffffffffffffffff167f54424bcd37c121359634358c4b6124e821af711811c1ad2fb8f96b94b046338c8484604051610564929190610b17565b60405180910390a350505050565b5f5f5f5f60018054905085106105bd576040517f08c379a00000000000000000000000000000000000000000000000000000000081526004016105b490610b88565b60405180910390fd5b5f600186815481106105d2576105d1610ba6565b5b905f5260205f2090600402016040518060800160405290815f82015f9054906101000a900473ffffffffffffffffffffffffffffffffffffffff1673ffffffffffffffffffffffffffffffffffffffff1673ffffffffffffffffffffffffffffffffffffffff168152602001600182015f9054906101000a900473ffffffffffffffffffffffffffffffffffffffff1673ffffffffffffffffffffffffffffffffffffffff1673ffffffffffffffffffffffffffffffffffffffff168152602001600282015481526020016003820154815250509050805f01518160200151826040015183606001519450945094509450509193509193565b5f5f9054906101000a900473ffffffffffffffffffffffffffffffffffffffff1681565b5f819050919050565b610701816106ef565b82525050565b5f60208201905061071a5f8301846106f8565b92915050565b5f5ffd5b61072d816106ef565b8114610737575f5ffd5b50565b5f8135905061074881610724565b92915050565b5f6020828403121561076357610762610720565b5b5f6107708482850161073a565b91505092915050565b5f73ffffffffffffffffffffffffffffffffffffffff82169050919050565b5f6107a282610779565b9050919050565b6107b281610798565b82525050565b5f6080820190506107cb5f8301876107a9565b6107d860208301866107a9565b6107e560408301856106f8565b6107f260608301846106f8565b95945050505050565b61080481610798565b811461080e575f5ffd5b50565b5f8135905061081f816107fb565b92915050565b5f5f5f5f6080858703121561083d5761083c610720565b5b5f61084a87828801610811565b945050602061085b87828801610811565b935050604061086c8782880161073a565b925050606061087d8782880161073a565b91505092959194509250565b5f819050919050565b5f6108ac6108a76108a284610779565b610889565b610779565b9050919050565b5f6108bd82610892565b9050919050565b5f6108ce826108b3565b9050919050565b6108de816108c4565b82525050565b5f6020820190506108f75f8301846108d5565b92915050565b5f6020820190506109105f8301846107a9565b92915050565b5f8151905061092481610724565b92915050565b5f6020828403121561093f5761093e610720565b5b5f61094c84828501610916565b91505092915050565b5f82825260208201905092915050565b7f53656c6c657220646f6573206e6f74206861766520656e6f75676820434354005f82015250565b5f610999601f83610955565b91506109a482610965565b602082019050919050565b5f6020820190508181035f8301526109c68161098d565b9050919050565b5f6040820190506109e05f8301856107a9565b6109ed60208301846107a9565b9392505050565b7f53656c6c657220686173206e6f7420617070726f7665642074686520636f6e745f8201527f7261637400000000000000000000000000000000000000000000000000000000602082015250565b5f610a4e602483610955565b9150610a59826109f4565b604082019050919050565b5f6020820190508181035f830152610a7b81610a42565b9050919050565b5f606082019050610a955f8301866107a9565b610aa260208301856107a9565b610aaf60408301846106f8565b949350505050565b5f8115159050919050565b610acb81610ab7565b8114610ad5575f5ffd5b50565b5f81519050610ae681610ac2565b92915050565b5f60208284031215610b0157610b00610720565b5b5f610b0e84828501610ad8565b91505092915050565b5f604082019050610b2a5f8301856106f8565b610b3760208301846106f8565b9392505050565b7f496e76616c6964206f7264657220696e646578000000000000000000000000005f82015250565b5f610b72601383610955565b9150610b7d82610b3e565b602082019050919050565b5f6020820190508181035f830152610b9f81610b66565b9050919050565b7f4e487b71000000000000000000000000000000000000000000000000000000005f52603260045260245ffdfea26469706673582212202bc26e9bcb25a832b665474185a4529e56253c1e0ae50328cdae1fa2ee05453764736f6c634300081c0033","linkReferences":{}},"methodIdentifiers":{"executeTrade(address,address,uint256,uint256)":"b9078616","getOrder(uint256)":"d09ef241","getOrderCount()":"8d0a5fbb","orders(uint256)":"a85c38ef","token()":"fc0c546a"},"id":11}