{"abi":[{"type":"constructor","inputs":[{"name":"_tokenAddress","type":"address","internalType":"address"}],"stateMutability":"nonpayable"},{"type":"function","name":"executeTrade","inputs":[{"name":"seller","type":"address","internalType":"address"},{"name":"buyer","type":"address","internalType":"address"},{"name":"cctAmount","type":"uint256","internalType":"uint256"},{"name":"ethPrice","type":"uint256","internalType":"uint256"}],"outputs":[],"stateMutability":"nonpayable"},{"type":"function","name":"getUserOrders","inputs":[{"name":"user","type":"address","internalType":"address"}],"outputs":[{"name":"","type":"tuple[]","internalType":"struct TradingContract.Order[]","components":[{"name":"seller","type":"address","internalType":"address"},{"name":"buyer","type":"address","internalType":"address"},{"name":"cctAmount","type":"uint256","internalType":"uint256"},{"name":"ethPrice","type":"uint256","internalType":"uint256"},{"name":"executed","type":"bool","internalType":"bool"}]}],"stateMutability":"view"},{"type":"function","name":"token","inputs":[],"outputs":[{"name":"","type":"address","internalType":"contract IERC20"}],"stateMutability":"view"},{"type":"function","name":"userOrders","inputs":[{"name":"","type":"address","internalType":"address"},{"name":"","type":"uint256","internalType":"uint256"}],"outputs":[{"name":"seller","type":"address","internalType":"address"},{"name":"buyer","type":"address","internalType":"address"},{"name":"cctAmount","type":"uint256","internalType":"uint256"},{"name":"ethPrice","type":"uint256","internalType":"uint256"},{"name":"executed","type":"bool","internalType":"bool"}],"stateMutability":"view"},{"type":"event","name":"TradeExecuted","inputs":[{"name":"seller","type":"address","indexed":true,"internalType":"address"},{"name":"buyer","type":"address","indexed":true,"internalType":"address"},{"name":"cctAmount","type":"uint256","indexed":false,"internalType":"uint256"},{"name":"ethPrice","type":"uint256","indexed":false,"internalType":"uint256"}],"anonymous":false}],"bytecode":{"object":"0x608060405234801561000f575f5ffd5b506040516111a43803806111a483398181016040528101906100319190610142565b5f73ffffffffffffffffffffffffffffffffffffffff168173ffffffffffffffffffffffffffffffffffffffff160361009f576040517f08c379a0000000000000000000000000000000000000000000000000000000008152600401610096906101c7565b60405180910390fd5b805f5f6101000a81548173ffffffffffffffffffffffffffffffffffffffff021916908373ffffffffffffffffffffffffffffffffffffffff160217905550506101e5565b5f5ffd5b5f73ffffffffffffffffffffffffffffffffffffffff82169050919050565b5f610111826100e8565b9050919050565b61012181610107565b811461012b575f5ffd5b50565b5f8151905061013c81610118565b92915050565b5f60208284031215610157576101566100e4565b5b5f6101648482850161012e565b91505092915050565b5f82825260208201905092915050565b7f496e76616c696420746f6b656e206164647265737300000000000000000000005f82015250565b5f6101b160158361016d565b91506101bc8261017d565b602082019050919050565b5f6020820190508181035f8301526101de816101a5565b9050919050565b610fb2806101f25f395ff3fe608060405234801561000f575f5ffd5b506004361061004a575f3560e01c806363c69f081461004e578063856652e91461007e578063b9078616146100b2578063fc0c546a146100ce575b5f5ffd5b610068600480360381019061006391906108f8565b6100ec565b6040516100759190610a72565b60405180910390f35b61009860048036038101906100939190610abc565b61025c565b6040516100a9959493929190610b27565b60405180910390f35b6100cc60048036038101906100c79190610b78565b6102f2565b005b6100d6610876565b6040516100e39190610c37565b60405180910390f35b606060015f8373ffffffffffffffffffffffffffffffffffffffff1673ffffffffffffffffffffffffffffffffffffffff1681526020019081526020015f20805480602002602001604051908101604052809291908181526020015f905b82821015610251578382905f5260205f2090600502016040518060a00160405290815f82015f9054906101000a900473ffffffffffffffffffffffffffffffffffffffff1673ffffffffffffffffffffffffffffffffffffffff1673ffffffffffffffffffffffffffffffffffffffff168152602001600182015f9054906101000a900473ffffffffffffffffffffffffffffffffffffffff1673ffffffffffffffffffffffffffffffffffffffff1673ffffffffffffffffffffffffffffffffffffffff1681526020016002820154815260200160038201548152602001600482015f9054906101000a900460ff1615151515815250508152602001906001019061014a565b505050509050919050565b6001602052815f5260405f208181548110610275575f80fd5b905f5260205f2090600502015f9150915050805f015f9054906101000a900473ffffffffffffffffffffffffffffffffffffffff1690806001015f9054906101000a900473ffffffffffffffffffffffffffffffffffffffff1690806002015490806003015490806004015f9054906101000a900460ff16905085565b8373ffffffffffffffffffffffffffffffffffffffff163373ffffffffffffffffffffffffffffffffffffffff16148061035757508273ffffffffffffffffffffffffffffffffffffffff163373ffffffffffffffffffffffffffffffffffffffff16145b610396576040517f08c379a000000000000000000000000000000000000000000000000000000000815260040161038d90610cd0565b60405180910390fd5b5f73ffffffffffffffffffffffffffffffffffffffff168473ffffffffffffffffffffffffffffffffffffffff16141580156103fe57505f73ffffffffffffffffffffffffffffffffffffffff168373ffffffffffffffffffffffffffffffffffffffff1614155b61043d576040517f08c379a000000000000000000000000000000000000000000000000000000000815260040161043490610d38565b60405180910390fd5b815f5f9054906101000a900473ffffffffffffffffffffffffffffffffffffffff1673ffffffffffffffffffffffffffffffffffffffff166370a08231866040518263ffffffff1660e01b81526004016104979190610d56565b602060405180830381865afa1580156104b2573d5f5f3e3d5ffd5b505050506040513d601f19601f820116820180604052508101906104d69190610d83565b1015610517576040517f08c379a000000000000000000000000000000000000000000000000000000000815260040161050e90610df8565b60405180910390fd5b815f5f9054906101000a900473ffffffffffffffffffffffffffffffffffffffff1673ffffffffffffffffffffffffffffffffffffffff1663dd62ed3e86306040518363ffffffff1660e01b8152600401610573929190610e16565b602060405180830381865afa15801561058e573d5f5f3e3d5ffd5b505050506040513d601f19601f820116820180604052508101906105b29190610d83565b10156105f3576040517f08c379a00000000000000000000000000000000000000000000000000000000081526004016105ea90610ead565b60405180910390fd5b5f5f9054906101000a900473ffffffffffffffffffffffffffffffffffffffff1673ffffffffffffffffffffffffffffffffffffffff166323b872dd8585856040518463ffffffff1660e01b815260040161065093929190610ecb565b6020604051808303815f875af115801561066c573d5f5f3e3d5ffd5b505050506040513d601f19601f820116820180604052508101906106909190610f2a565b5060015f8573ffffffffffffffffffffffffffffffffffffffff1673ffffffffffffffffffffffffffffffffffffffff1681526020019081526020015f206040518060a001604052808673ffffffffffffffffffffffffffffffffffffffff1681526020018573ffffffffffffffffffffffffffffffffffffffff16815260200184815260200183815260200160011515815250908060018154018082558091505060019003905f5260205f2090600502015f909190919091505f820151815f015f6101000a81548173ffffffffffffffffffffffffffffffffffffffff021916908373ffffffffffffffffffffffffffffffffffffffff1602179055506020820151816001015f6101000a81548173ffffffffffffffffffffffffffffffffffffffff021916908373ffffffffffffffffffffffffffffffffffffffff16021790555060408201518160020155606082015181600301556080820151816004015f6101000a81548160ff02191690831515021790555050508273ffffffffffffffffffffffffffffffffffffffff168473ffffffffffffffffffffffffffffffffffffffff167f54424bcd37c121359634358c4b6124e821af711811c1ad2fb8f96b94b046338c8484604051610868929190610f55565b60405180910390a350505050565b5f5f9054906101000a900473ffffffffffffffffffffffffffffffffffffffff1681565b5f5ffd5b5f73ffffffffffffffffffffffffffffffffffffffff82169050919050565b5f6108c78261089e565b9050919050565b6108d7816108bd565b81146108e1575f5ffd5b50565b5f813590506108f2816108ce565b92915050565b5f6020828403121561090d5761090c61089a565b5b5f61091a848285016108e4565b91505092915050565b5f81519050919050565b5f82825260208201905092915050565b5f819050602082019050919050565b610955816108bd565b82525050565b5f819050919050565b61096d8161095b565b82525050565b5f8115159050919050565b61098781610973565b82525050565b60a082015f8201516109a15f85018261094c565b5060208201516109b4602085018261094c565b5060408201516109c76040850182610964565b5060608201516109da6060850182610964565b5060808201516109ed608085018261097e565b50505050565b5f6109fe838361098d565b60a08301905092915050565b5f602082019050919050565b5f610a2082610923565b610a2a818561092d565b9350610a358361093d565b805f5b83811015610a65578151610a4c88826109f3565b9750610a5783610a0a565b925050600181019050610a38565b5085935050505092915050565b5f6020820190508181035f830152610a8a8184610a16565b905092915050565b610a9b8161095b565b8114610aa5575f5ffd5b50565b5f81359050610ab681610a92565b92915050565b5f5f60408385031215610ad257610ad161089a565b5b5f610adf858286016108e4565b9250506020610af085828601610aa8565b9150509250929050565b610b03816108bd565b82525050565b610b128161095b565b82525050565b610b2181610973565b82525050565b5f60a082019050610b3a5f830188610afa565b610b476020830187610afa565b610b546040830186610b09565b610b616060830185610b09565b610b6e6080830184610b18565b9695505050505050565b5f5f5f5f60808587031215610b9057610b8f61089a565b5b5f610b9d878288016108e4565b9450506020610bae878288016108e4565b9350506040610bbf87828801610aa8565b9250506060610bd087828801610aa8565b91505092959194509250565b5f819050919050565b5f610bff610bfa610bf58461089e565b610bdc565b61089e565b9050919050565b5f610c1082610be5565b9050919050565b5f610c2182610c06565b9050919050565b610c3181610c17565b82525050565b5f602082019050610c4a5f830184610c28565b92915050565b5f82825260208201905092915050565b7f4f6e6c79207061727469636970616e74732063616e2063616c6c2074686973205f8201527f66756e6374696f6e000000000000000000000000000000000000000000000000602082015250565b5f610cba602883610c50565b9150610cc582610c60565b604082019050919050565b5f6020820190508181035f830152610ce781610cae565b9050919050565b7f496e76616c6964206164647265737365730000000000000000000000000000005f82015250565b5f610d22601183610c50565b9150610d2d82610cee565b602082019050919050565b5f6020820190508181035f830152610d4f81610d16565b9050919050565b5f602082019050610d695f830184610afa565b92915050565b5f81519050610d7d81610a92565b92915050565b5f60208284031215610d9857610d9761089a565b5b5f610da584828501610d6f565b91505092915050565b7f53656c6c657220646f6573206e6f74206861766520656e6f75676820434354005f82015250565b5f610de2601f83610c50565b9150610ded82610dae565b602082019050919050565b5f6020820190508181035f830152610e0f81610dd6565b9050919050565b5f604082019050610e295f830185610afa565b610e366020830184610afa565b9392505050565b7f53656c6c657220686173206e6f7420617070726f7665642074686520636f6e745f8201527f7261637400000000000000000000000000000000000000000000000000000000602082015250565b5f610e97602483610c50565b9150610ea282610e3d565b604082019050919050565b5f6020820190508181035f830152610ec481610e8b565b9050919050565b5f606082019050610ede5f830186610afa565b610eeb6020830185610afa565b610ef86040830184610b09565b949350505050565b610f0981610973565b8114610f13575f5ffd5b50565b5f81519050610f2481610f00565b92915050565b5f60208284031215610f3f57610f3e61089a565b5b5f610f4c84828501610f16565b91505092915050565b5f604082019050610f685f830185610b09565b610f756020830184610b09565b939250505056fea2646970667358221220c8de5bd98292501dc178408284ca639fa92da2c6402074d4ca864a2cb30d7fbd64736f6c634300081c0033","linkReferences":{}},"methodIdentifiers":{"executeTrade(address,address,uint256,uint256)":"b9078616","getUserOrders(address)":"63c69f08","token()":"fc0c546a","userOrders(address,uint256)":"856652e9"},"id":11}