{"abi":[{"type":"constructor","inputs":[{"name":"_tokenAddress","type":"address","internalType":"address"}],"stateMutability":"nonpayable"},{"type":"function","name":"executeTrade","inputs":[{"name":"seller","type":"address","internalType":"address"},{"name":"buyer","type":"address","internalType":"address"},{"name":"cctAmount","type":"uint256","internalType":"uint256"},{"name":"ethPrice","type":"uint256","internalType":"uint256"}],"outputs":[],"stateMutability":"nonpayable"},{"type":"function","name":"getUserOrders","inputs":[{"name":"user","type":"address","internalType":"address"}],"outputs":[{"name":"","type":"tuple[]","internalType":"struct TradingContractV2.Order[]","components":[{"name":"seller","type":"address","internalType":"address"},{"name":"buyer","type":"address","internalType":"address"},{"name":"cctAmount","type":"uint256","internalType":"uint256"},{"name":"ethPrice","type":"uint256","internalType":"uint256"},{"name":"executed","type":"bool","internalType":"bool"}]}],"stateMutability":"view"},{"type":"function","name":"token","inputs":[],"outputs":[{"name":"","type":"address","internalType":"contract IERC20"}],"stateMutability":"view"},{"type":"function","name":"userOrders","inputs":[{"name":"","type":"address","internalType":"address"},{"name":"","type":"uint256","internalType":"uint256"}],"outputs":[{"name":"seller","type":"address","internalType":"address"},{"name":"buyer","type":"address","internalType":"address"},{"name":"cctAmount","type":"uint256","internalType":"uint256"},{"name":"ethPrice","type":"uint256","internalType":"uint256"},{"name":"executed","type":"bool","internalType":"bool"}],"stateMutability":"view"},{"type":"event","name":"TradeExecuted","inputs":[{"name":"seller","type":"address","indexed":true,"internalType":"address"},{"name":"buyer","type":"address","indexed":true,"internalType":"address"},{"name":"cctAmount","type":"uint256","indexed":false,"internalType":"uint256"},{"name":"ethPrice","type":"uint256","indexed":false,"internalType":"uint256"}],"anonymous":false}],"bytecode":{"object":"0x608060405234801561000f575f5ffd5b5060405161107238038061107283398181016040528101906100319190610142565b5f73ffffffffffffffffffffffffffffffffffffffff168173ffffffffffffffffffffffffffffffffffffffff160361009f576040517f08c379a0000000000000000000000000000000000000000000000000000000008152600401610096906101c7565b60405180910390fd5b805f5f6101000a81548173ffffffffffffffffffffffffffffffffffffffff021916908373ffffffffffffffffffffffffffffffffffffffff160217905550506101e5565b5f5ffd5b5f73ffffffffffffffffffffffffffffffffffffffff82169050919050565b5f610111826100e8565b9050919050565b61012181610107565b811461012b575f5ffd5b50565b5f8151905061013c81610118565b92915050565b5f60208284031215610157576101566100e4565b5b5f6101648482850161012e565b91505092915050565b5f82825260208201905092915050565b7f496e76616c696420746f6b656e206164647265737300000000000000000000005f82015250565b5f6101b160158361016d565b91506101bc8261017d565b602082019050919050565b5f6020820190508181035f8301526101de816101a5565b9050919050565b610e80806101f25f395ff3fe608060405234801561000f575f5ffd5b506004361061004a575f3560e01c806363c69f081461004e578063856652e91461007e578063b9078616146100b2578063fc0c546a146100ce575b5f5ffd5b61006860048036038101906100639190610854565b6100ec565b60405161007591906109ce565b60405180910390f35b61009860048036038101906100939190610a18565b61025c565b6040516100a9959493929190610a83565b60405180910390f35b6100cc60048036038101906100c79190610ad4565b6102f2565b005b6100d66107d2565b6040516100e39190610b93565b60405180910390f35b606060015f8373ffffffffffffffffffffffffffffffffffffffff1673ffffffffffffffffffffffffffffffffffffffff1681526020019081526020015f20805480602002602001604051908101604052809291908181526020015f905b82821015610251578382905f5260205f2090600502016040518060a00160405290815f82015f9054906101000a900473ffffffffffffffffffffffffffffffffffffffff1673ffffffffffffffffffffffffffffffffffffffff1673ffffffffffffffffffffffffffffffffffffffff168152602001600182015f9054906101000a900473ffffffffffffffffffffffffffffffffffffffff1673ffffffffffffffffffffffffffffffffffffffff1673ffffffffffffffffffffffffffffffffffffffff1681526020016002820154815260200160038201548152602001600482015f9054906101000a900460ff1615151515815250508152602001906001019061014a565b505050509050919050565b6001602052815f5260405f208181548110610275575f80fd5b905f5260205f2090600502015f9150915050805f015f9054906101000a900473ffffffffffffffffffffffffffffffffffffffff1690806001015f9054906101000a900473ffffffffffffffffffffffffffffffffffffffff1690806002015490806003015490806004015f9054906101000a900460ff16905085565b5f73ffffffffffffffffffffffffffffffffffffffff168473ffffffffffffffffffffffffffffffffffffffff161415801561035a57505f73ffffffffffffffffffffffffffffffffffffffff168373ffffffffffffffffffffffffffffffffffffffff1614155b610399576040517f08c379a000000000000000000000000000000000000000000000000000000000815260040161039090610c06565b60405180910390fd5b815f5f9054906101000a900473ffffffffffffffffffffffffffffffffffffffff1673ffffffffffffffffffffffffffffffffffffffff166370a08231866040518263ffffffff1660e01b81526004016103f39190610c24565b602060405180830381865afa15801561040e573d5f5f3e3d5ffd5b505050506040513d601f19601f820116820180604052508101906104329190610c51565b1015610473576040517f08c379a000000000000000000000000000000000000000000000000000000000815260040161046a90610cc6565b60405180910390fd5b815f5f9054906101000a900473ffffffffffffffffffffffffffffffffffffffff1673ffffffffffffffffffffffffffffffffffffffff1663dd62ed3e86306040518363ffffffff1660e01b81526004016104cf929190610ce4565b602060405180830381865afa1580156104ea573d5f5f3e3d5ffd5b505050506040513d601f19601f8201168201806040525081019061050e9190610c51565b101561054f576040517f08c379a000000000000000000000000000000000000000000000000000000000815260040161054690610d7b565b60405180910390fd5b5f5f9054906101000a900473ffffffffffffffffffffffffffffffffffffffff1673ffffffffffffffffffffffffffffffffffffffff166323b872dd8585856040518463ffffffff1660e01b81526004016105ac93929190610d99565b6020604051808303815f875af11580156105c8573d5f5f3e3d5ffd5b505050506040513d601f19601f820116820180604052508101906105ec9190610df8565b5060015f8573ffffffffffffffffffffffffffffffffffffffff1673ffffffffffffffffffffffffffffffffffffffff1681526020019081526020015f206040518060a001604052808673ffffffffffffffffffffffffffffffffffffffff1681526020018573ffffffffffffffffffffffffffffffffffffffff16815260200184815260200183815260200160011515815250908060018154018082558091505060019003905f5260205f2090600502015f909190919091505f820151815f015f6101000a81548173ffffffffffffffffffffffffffffffffffffffff021916908373ffffffffffffffffffffffffffffffffffffffff1602179055506020820151816001015f6101000a81548173ffffffffffffffffffffffffffffffffffffffff021916908373ffffffffffffffffffffffffffffffffffffffff16021790555060408201518160020155606082015181600301556080820151816004015f6101000a81548160ff02191690831515021790555050508273ffffffffffffffffffffffffffffffffffffffff168473ffffffffffffffffffffffffffffffffffffffff167f54424bcd37c121359634358c4b6124e821af711811c1ad2fb8f96b94b046338c84846040516107c4929190610e23565b60405180910390a350505050565b5f5f9054906101000a900473ffffffffffffffffffffffffffffffffffffffff1681565b5f5ffd5b5f73ffffffffffffffffffffffffffffffffffffffff82169050919050565b5f610823826107fa565b9050919050565b61083381610819565b811461083d575f5ffd5b50565b5f8135905061084e8161082a565b92915050565b5f60208284031215610869576108686107f6565b5b5f61087684828501610840565b91505092915050565b5f81519050919050565b5f82825260208201905092915050565b5f819050602082019050919050565b6108b181610819565b82525050565b5f819050919050565b6108c9816108b7565b82525050565b5f8115159050919050565b6108e3816108cf565b82525050565b60a082015f8201516108fd5f8501826108a8565b50602082015161091060208501826108a8565b50604082015161092360408501826108c0565b50606082015161093660608501826108c0565b50608082015161094960808501826108da565b50505050565b5f61095a83836108e9565b60a08301905092915050565b5f602082019050919050565b5f61097c8261087f565b6109868185610889565b935061099183610899565b805f5b838110156109c15781516109a8888261094f565b97506109b383610966565b925050600181019050610994565b5085935050505092915050565b5f6020820190508181035f8301526109e68184610972565b905092915050565b6109f7816108b7565b8114610a01575f5ffd5b50565b5f81359050610a12816109ee565b92915050565b5f5f60408385031215610a2e57610a2d6107f6565b5b5f610a3b85828601610840565b9250506020610a4c85828601610a04565b9150509250929050565b610a5f81610819565b82525050565b610a6e816108b7565b82525050565b610a7d816108cf565b82525050565b5f60a082019050610a965f830188610a56565b610aa36020830187610a56565b610ab06040830186610a65565b610abd6060830185610a65565b610aca6080830184610a74565b9695505050505050565b5f5f5f5f60808587031215610aec57610aeb6107f6565b5b5f610af987828801610840565b9450506020610b0a87828801610840565b9350506040610b1b87828801610a04565b9250506060610b2c87828801610a04565b91505092959194509250565b5f819050919050565b5f610b5b610b56610b51846107fa565b610b38565b6107fa565b9050919050565b5f610b6c82610b41565b9050919050565b5f610b7d82610b62565b9050919050565b610b8d81610b73565b82525050565b5f602082019050610ba65f830184610b84565b92915050565b5f82825260208201905092915050565b7f496e76616c6964206164647265737365730000000000000000000000000000005f82015250565b5f610bf0601183610bac565b9150610bfb82610bbc565b602082019050919050565b5f6020820190508181035f830152610c1d81610be4565b9050919050565b5f602082019050610c375f830184610a56565b92915050565b5f81519050610c4b816109ee565b92915050565b5f60208284031215610c6657610c656107f6565b5b5f610c7384828501610c3d565b91505092915050565b7f53656c6c657220646f6573206e6f74206861766520656e6f75676820434354005f82015250565b5f610cb0601f83610bac565b9150610cbb82610c7c565b602082019050919050565b5f6020820190508181035f830152610cdd81610ca4565b9050919050565b5f604082019050610cf75f830185610a56565b610d046020830184610a56565b9392505050565b7f53656c6c657220686173206e6f7420617070726f7665642074686520636f6e745f8201527f7261637400000000000000000000000000000000000000000000000000000000602082015250565b5f610d65602483610bac565b9150610d7082610d0b565b604082019050919050565b5f6020820190508181035f830152610d9281610d59565b9050919050565b5f606082019050610dac5f830186610a56565b610db96020830185610a56565b610dc66040830184610a65565b949350505050565b610dd7816108cf565b8114610de1575f5ffd5b50565b5f81519050610df281610dce565b92915050565b5f60208284031215610e0d57610e0c6107f6565b5b5f610e1a84828501610de4565b91505092915050565b5f604082019050610e365f830185610a65565b610e436020830184610a65565b939250505056fea26469706673582212205a63eef305219917a76f4011e61e5cd1e3286066b1f8fae546e9eb9745664abf64736f6c634300081c0033","linkReferences":{}},"methodIdentifiers":{"executeTrade(address,address,uint256,uint256)":"b9078616","getUserOrders(address)":"63c69f08","token()":"fc0c546a","userOrders(address,uint256)":"856652e9"},"id":1}