{"abi":[{"type":"constructor","inputs":[{"name":"initialOwner","type":"address","internalType":"address"}],"stateMutability":"nonpayable"},{"type":"function","name":"allowance","inputs":[{"name":"owner","type":"address","internalType":"address"},{"name":"spender","type":"address","internalType":"address"}],"outputs":[{"name":"","type":"uint256","internalType":"uint256"}],"stateMutability":"view"},{"type":"function","name":"approve","inputs":[{"name":"spender","type":"address","internalType":"address"},{"name":"value","type":"uint256","internalType":"uint256"}],"outputs":[{"name":"","type":"bool","internalType":"bool"}],"stateMutability":"nonpayable"},{"type":"function","name":"authorizeUser","inputs":[{"name":"user","type":"address","internalType":"address"}],"outputs":[],"stateMutability":"nonpayable"},{"type":"function","name":"authorizedUsers","inputs":[{"name":"","type":"address","internalType":"address"}],"outputs":[{"name":"","type":"bool","internalType":"bool"}],"stateMutability":"view"},{"type":"function","name":"balanceOf","inputs":[{"name":"account","type":"address","internalType":"address"}],"outputs":[{"name":"","type":"uint256","internalType":"uint256"}],"stateMutability":"view"},{"type":"function","name":"burn","inputs":[{"name":"amount","type":"uint256","internalType":"uint256"}],"outputs":[],"stateMutability":"nonpayable"},{"type":"function","name":"decimals","inputs":[],"outputs":[{"name":"","type":"uint8","internalType":"uint8"}],"stateMutability":"view"},{"type":"function","name":"name","inputs":[],"outputs":[{"name":"","type":"string","internalType":"string"}],"stateMutability":"view"},{"type":"function","name":"owner","inputs":[],"outputs":[{"name":"","type":"address","internalType":"address"}],"stateMutability":"view"},{"type":"function","name":"renounceOwnership","inputs":[],"outputs":[],"stateMutability":"nonpayable"},{"type":"function","name":"symbol","inputs":[],"outputs":[{"name":"","type":"string","internalType":"string"}],"stateMutability":"view"},{"type":"function","name":"totalSupply","inputs":[],"outputs":[{"name":"","type":"uint256","internalType":"uint256"}],"stateMutability":"view"},{"type":"function","name":"transfer","inputs":[{"name":"to","type":"address","internalType":"address"},{"name":"value","type":"uint256","internalType":"uint256"}],"outputs":[{"name":"","type":"bool","internalType":"bool"}],"stateMutability":"nonpayable"},{"type":"function","name":"transferFrom","inputs":[{"name":"from","type":"address","internalType":"address"},{"name":"to","type":"address","internalType":"address"},{"name":"value","type":"uint256","internalType":"uint256"}],"outputs":[{"name":"","type":"bool","internalType":"bool"}],"stateMutability":"nonpayable"},{"type":"function","name":"transferFromOwnerOnLogin","inputs":[{"name":"to","type":"address","internalType":"address"},{"name":"amount","type":"uint256","internalType":"uint256"}],"outputs":[],"stateMutability":"nonpayable"},{"type":"function","name":"transferOwnership","inputs":[{"name":"newOwner","type":"address","internalType":"address"}],"outputs":[],"stateMutability":"nonpayable"},{"type":"event","name":"Approval","inputs":[{"name":"owner","type":"address","indexed":true,"internalType":"address"},{"name":"spender","type":"address","indexed":true,"internalType":"address"},{"name":"value","type":"uint256","indexed":false,"internalType":"uint256"}],"anonymous":false},{"type":"event","name":"Burned","inputs":[{"name":"from","type":"address","indexed":true,"internalType":"address"},{"name":"amount","type":"uint256","indexed":false,"internalType":"uint256"}],"anonymous":false},{"type":"event","name":"Minted","inputs":[{"name":"to","type":"address","indexed":true,"internalType":"address"},{"name":"amount","type":"uint256","indexed":false,"internalType":"uint256"}],"anonymous":false},{"type":"event","name":"OwnershipTransferred","inputs":[{"name":"previousOwner","type":"address","indexed":true,"internalType":"address"},{"name":"newOwner","type":"address","indexed":true,"internalType":"address"}],"anonymous":false},{"type":"event","name":"Transfer","inputs":[{"name":"from","type":"address","indexed":true,"internalType":"address"},{"name":"to","type":"address","indexed":true,"internalType":"address"},{"name":"value","type":"uint256","indexed":false,"internalType":"uint256"}],"anonymous":false},{"type":"event","name":"Transferred","inputs":[{"name":"from","type":"address","indexed":true,"internalType":"address"},{"name":"to","type":"address","indexed":true,"internalType":"address"},{"name":"amount","type":"uint256","indexed":false,"internalType":"uint256"}],"anonymous":false},{"type":"event","name":"UserAuthorized","inputs":[{"name":"user","type":"address","indexed":true,"internalType":"address"}],"anonymous":false},{"type":"error","name":"ERC20InsufficientAllowance","inputs":[{"name":"spender","type":"address","internalType":"address"},{"name":"allowance","type":"uint256","internalType":"uint256"},{"name":"needed","type":"uint256","internalType":"uint256"}]},{"type":"error","name":"ERC20InsufficientBalance","inputs":[{"name":"sender","type":"address","internalType":"address"},{"name":"balance","type":"uint256","internalType":"uint256"},{"name":"needed","type":"uint256","internalType":"uint256"}]},{"type":"error","name":"ERC20InvalidApprover","inputs":[{"name":"approver","type":"address","internalType":"address"}]},{"type":"error","name":"ERC20InvalidReceiver","inputs":[{"name":"receiver","type":"address","internalType":"address"}]},{"type":"error","name":"ERC20InvalidSender","inputs":[{"name":"sender","type":"address","internalType":"address"}]},{"type":"error","name":"ERC20InvalidSpender","inputs":[{"name":"spender","type":"address","internalType":"address"}]},{"type":"error","name":"OwnableInvalidOwner","inputs":[{"name":"owner","type":"address","internalType":"address"}]},{"type":"error","name":"OwnableUnauthorizedAccount","inputs":[{"name":"account","type":"address","internalType":"address"}]}],"bytecode":{"object":"0x608060405234801561000f575f5ffd5b506040516122f43803806122f4833981810160405281019061003191906105b1565b336040518060400160405280601381526020017f436172626f6e2d4372656469742d546f6b656e000000000000000000000000008152506040518060400160405280600381526020017f434354000000000000000000000000000000000000000000000000000000000081525081600390816100ad9190610819565b5080600490816100bd9190610819565b5050505f73ffffffffffffffffffffffffffffffffffffffff168173ffffffffffffffffffffffffffffffffffffffff1603610130575f6040517f1e4fbdf700000000000000000000000000000000000000000000000000000000815260040161012791906108f7565b60405180910390fd5b61013f816101ea60201b60201c565b505f73ffffffffffffffffffffffffffffffffffffffff168173ffffffffffffffffffffffffffffffffffffffff16036101ae576040517f08c379a00000000000000000000000000000000000000000000000000000000081526004016101a59061096a565b60405180910390fd5b6101e4816101c06102ad60201b60201c565b600a6101cc9190610af0565b6101f46101d99190610b3a565b6102b560201b60201c565b50610c0b565b5f60055f9054906101000a900473ffffffffffffffffffffffffffffffffffffffff1690508160055f6101000a81548173ffffffffffffffffffffffffffffffffffffffff021916908373ffffffffffffffffffffffffffffffffffffffff1602179055508173ffffffffffffffffffffffffffffffffffffffff168173ffffffffffffffffffffffffffffffffffffffff167f8be0079c531659141344cd1fd0a4f28419497f9722a3daafe3b4186f6b6457e060405160405180910390a35050565b5f6012905090565b5f73ffffffffffffffffffffffffffffffffffffffff168273ffffffffffffffffffffffffffffffffffffffff1603610325575f6040517fec442f0500000000000000000000000000000000000000000000000000000000815260040161031c91906108f7565b60405180910390fd5b6103365f838361033a60201b60201c565b5050565b5f73ffffffffffffffffffffffffffffffffffffffff168373ffffffffffffffffffffffffffffffffffffffff160361038a578060025f82825461037e9190610b7b565b92505081905550610458565b5f5f5f8573ffffffffffffffffffffffffffffffffffffffff1673ffffffffffffffffffffffffffffffffffffffff1681526020019081526020015f2054905081811015610413578381836040517fe450d38c00000000000000000000000000000000000000000000000000000000815260040161040a93929190610bbd565b60405180910390fd5b8181035f5f8673ffffffffffffffffffffffffffffffffffffffff1673ffffffffffffffffffffffffffffffffffffffff1681526020019081526020015f2081905550505b5f73ffffffffffffffffffffffffffffffffffffffff168273ffffffffffffffffffffffffffffffffffffffff160361049f578060025f82825403925050819055506104e9565b805f5f8473ffffffffffffffffffffffffffffffffffffffff1673ffffffffffffffffffffffffffffffffffffffff1681526020019081526020015f205f82825401925050819055505b8173ffffffffffffffffffffffffffffffffffffffff168373ffffffffffffffffffffffffffffffffffffffff167fddf252ad1be2c89b69c2b068fc378daa952ba7f163c4a11628f55a4df523b3ef836040516105469190610bf2565b60405180910390a3505050565b5f5ffd5b5f73ffffffffffffffffffffffffffffffffffffffff82169050919050565b5f61058082610557565b9050919050565b61059081610576565b811461059a575f5ffd5b50565b5f815190506105ab81610587565b92915050565b5f602082840312156105c6576105c5610553565b5b5f6105d38482850161059d565b91505092915050565b5f81519050919050565b7f4e487b71000000000000000000000000000000000000000000000000000000005f52604160045260245ffd5b7f4e487b71000000000000000000000000000000000000000000000000000000005f52602260045260245ffd5b5f600282049050600182168061065757607f821691505b60208210810361066a57610669610613565b5b50919050565b5f819050815f5260205f209050919050565b5f6020601f8301049050919050565b5f82821b905092915050565b5f600883026106cc7fffffffffffffffffffffffffffffffffffffffffffffffffffffffffffffffff82610691565b6106d68683610691565b95508019841693508086168417925050509392505050565b5f819050919050565b5f819050919050565b5f61071a610715610710846106ee565b6106f7565b6106ee565b9050919050565b5f819050919050565b61073383610700565b61074761073f82610721565b84845461069d565b825550505050565b5f5f905090565b61075e61074f565b61076981848461072a565b505050565b5b8181101561078c576107815f82610756565b60018101905061076f565b5050565b601f8211156107d1576107a281610670565b6107ab84610682565b810160208510156107ba578190505b6107ce6107c685610682565b83018261076e565b50505b505050565b5f82821c905092915050565b5f6107f15f19846008026107d6565b1980831691505092915050565b5f61080983836107e2565b9150826002028217905092915050565b610822826105dc565b67ffffffffffffffff81111561083b5761083a6105e6565b5b6108458254610640565b610850828285610790565b5f60209050601f831160018114610881575f841561086f578287015190505b61087985826107fe565b8655506108e0565b601f19841661088f86610670565b5f5b828110156108b657848901518255600182019150602085019450602081019050610891565b868310156108d357848901516108cf601f8916826107e2565b8355505b6001600288020188555050505b505050505050565b6108f181610576565b82525050565b5f60208201905061090a5f8301846108e8565b92915050565b5f82825260208201905092915050565b7f496e76616c6964206f776e6572206164647265737300000000000000000000005f82015250565b5f610954601583610910565b915061095f82610920565b602082019050919050565b5f6020820190508181035f83015261098181610948565b9050919050565b7f4e487b71000000000000000000000000000000000000000000000000000000005f52601160045260245ffd5b5f8160011c9050919050565b5f5f8291508390505b6001851115610a0a578086048111156109e6576109e5610988565b5b60018516156109f55780820291505b8081029050610a03856109b5565b94506109ca565b94509492505050565b5f82610a225760019050610add565b81610a2f575f9050610add565b8160018114610a455760028114610a4f57610a7e565b6001915050610add565b60ff841115610a6157610a60610988565b5b8360020a915084821115610a7857610a77610988565b5b50610add565b5060208310610133831016604e8410600b8410161715610ab35782820a905083811115610aae57610aad610988565b5b610add565b610ac084848460016109c1565b92509050818404811115610ad757610ad6610988565b5b81810290505b9392505050565b5f60ff82169050919050565b5f610afa826106ee565b9150610b0583610ae4565b9250610b327fffffffffffffffffffffffffffffffffffffffffffffffffffffffffffffffff8484610a13565b905092915050565b5f610b44826106ee565b9150610b4f836106ee565b9250828202610b5d816106ee565b91508282048414831517610b7457610b73610988565b5b5092915050565b5f610b85826106ee565b9150610b90836106ee565b9250828201905080821115610ba857610ba7610988565b5b92915050565b610bb7816106ee565b82525050565b5f606082019050610bd05f8301866108e8565b610bdd6020830185610bae565b610bea6040830184610bae565b949350505050565b5f602082019050610c055f830184610bae565b92915050565b6116dc80610c185f395ff3fe608060405234801561000f575f5ffd5b50600436106100fe575f3560e01c806367c2a3601161009557806395d89b411161006457806395d89b4114610298578063a9059cbb146102b6578063dd62ed3e146102e6578063f2fde38b14610316576100fe565b806367c2a3601461022457806370a0823114610240578063715018a6146102705780638da5cb5b1461027a576100fe565b806323b872dd116100d157806323b872dd1461019e5780632610b067146101ce578063313ce567146101ea57806342966c6814610208576100fe565b806306fdde0314610102578063095ea7b31461012057806318160ddd146101505780631828983a1461016e575b5f5ffd5b61010a610332565b604051610117919061118a565b60405180910390f35b61013a6004803603810190610135919061123b565b6103c2565b6040516101479190611293565b60405180910390f35b6101586103e4565b60405161016591906112bb565b60405180910390f35b610188600480360381019061018391906112d4565b6103ed565b6040516101959190611293565b60405180910390f35b6101b860048036038101906101b391906112ff565b61040a565b6040516101c59190611293565b60405180910390f35b6101e860048036038101906101e3919061123b565b610438565b005b6101f261060b565b6040516101ff919061136a565b60405180910390f35b610222600480360381019061021d9190611383565b610613565b005b61023e600480360381019061023991906112d4565b610684565b005b61025a600480360381019061025591906112d4565b610795565b60405161026791906112bb565b60405180910390f35b6102786107da565b005b6102826107ed565b60405161028f91906113bd565b60405180910390f35b6102a0610815565b6040516102ad919061118a565b60405180910390f35b6102d060048036038101906102cb919061123b565b6108a5565b6040516102dd9190611293565b60405180910390f35b61030060048036038101906102fb91906113d6565b6108c7565b60405161030d91906112bb565b60405180910390f35b610330600480360381019061032b91906112d4565b610949565b005b60606003805461034190611441565b80601f016020809104026020016040519081016040528092919081815260200182805461036d90611441565b80156103b85780601f1061038f576101008083540402835291602001916103b8565b820191905f5260205f20905b81548152906001019060200180831161039b57829003601f168201915b5050505050905090565b5f5f6103cc6109cd565b90506103d98185856109d4565b600191505092915050565b5f600254905090565b6006602052805f5260405f205f915054906101000a900460ff1681565b5f5f6104146109cd565b90506104218582856109e6565b61042c858585610a79565b60019150509392505050565b610440610b69565b60065f8373ffffffffffffffffffffffffffffffffffffffff1673ffffffffffffffffffffffffffffffffffffffff1681526020019081526020015f205f9054906101000a900460ff166104c9576040517f08c379a00000000000000000000000000000000000000000000000000000000081526004016104c0906114bb565b60405180910390fd5b5f73ffffffffffffffffffffffffffffffffffffffff168273ffffffffffffffffffffffffffffffffffffffff1603610537576040517f08c379a000000000000000000000000000000000000000000000000000000000815260040161052e90611523565b60405180910390fd5b806105486105436107ed565b610795565b1015610589576040517f08c379a00000000000000000000000000000000000000000000000000000000081526004016105809061158b565b60405180910390fd5b61059b6105946107ed565b8383610a79565b8173ffffffffffffffffffffffffffffffffffffffff166105ba6107ed565b73ffffffffffffffffffffffffffffffffffffffff167fd1ba4ac2e2a11b5101f6cb4d978f514a155b421e8ec396d2d9abaf0bb02917ee836040516105ff91906112bb565b60405180910390a35050565b5f6012905090565b61061b610b69565b61062c6106266107ed565b82610bf0565b6106346107ed565b73ffffffffffffffffffffffffffffffffffffffff167f696de425f79f4a40bc6d2122ca50507f0efbeabbff86a84871b7196ab8ea8df78260405161067991906112bb565b60405180910390a250565b61068c610b69565b5f73ffffffffffffffffffffffffffffffffffffffff168173ffffffffffffffffffffffffffffffffffffffff16036106fa576040517f08c379a00000000000000000000000000000000000000000000000000000000081526004016106f1906115f3565b60405180910390fd5b600160065f8373ffffffffffffffffffffffffffffffffffffffff1673ffffffffffffffffffffffffffffffffffffffff1681526020019081526020015f205f6101000a81548160ff0219169083151502179055508073ffffffffffffffffffffffffffffffffffffffff167fb0be505cf6e26533f3066ac7722c3f8a5e8a123f43187c7832d333c49603b14660405160405180910390a250565b5f5f5f8373ffffffffffffffffffffffffffffffffffffffff1673ffffffffffffffffffffffffffffffffffffffff1681526020019081526020015f20549050919050565b6107e2610b69565b6107eb5f610c6f565b565b5f60055f9054906101000a900473ffffffffffffffffffffffffffffffffffffffff16905090565b60606004805461082490611441565b80601f016020809104026020016040519081016040528092919081815260200182805461085090611441565b801561089b5780601f106108725761010080835404028352916020019161089b565b820191905f5260205f20905b81548152906001019060200180831161087e57829003601f168201915b5050505050905090565b5f5f6108af6109cd565b90506108bc818585610a79565b600191505092915050565b5f60015f8473ffffffffffffffffffffffffffffffffffffffff1673ffffffffffffffffffffffffffffffffffffffff1681526020019081526020015f205f8373ffffffffffffffffffffffffffffffffffffffff1673ffffffffffffffffffffffffffffffffffffffff1681526020019081526020015f2054905092915050565b610951610b69565b5f73ffffffffffffffffffffffffffffffffffffffff168173ffffffffffffffffffffffffffffffffffffffff16036109c1575f6040517f1e4fbdf70000000000000000000000000000000000000000000000000000000081526004016109b891906113bd565b60405180910390fd5b6109ca81610c6f565b50565b5f33905090565b6109e18383836001610d32565b505050565b5f6109f184846108c7565b90507fffffffffffffffffffffffffffffffffffffffffffffffffffffffffffffffff811015610a735781811015610a64578281836040517ffb8f41b2000000000000000000000000000000000000000000000000000000008152600401610a5b93929190611611565b60405180910390fd5b610a7284848484035f610d32565b5b50505050565b5f73ffffffffffffffffffffffffffffffffffffffff168373ffffffffffffffffffffffffffffffffffffffff1603610ae9575f6040517f96c6fd1e000000000000000000000000000000000000000000000000000000008152600401610ae091906113bd565b60405180910390fd5b5f73ffffffffffffffffffffffffffffffffffffffff168273ffffffffffffffffffffffffffffffffffffffff1603610b59575f6040517fec442f05000000000000000000000000000000000000000000000000000000008152600401610b5091906113bd565b60405180910390fd5b610b64838383610f01565b505050565b610b716109cd565b73ffffffffffffffffffffffffffffffffffffffff16610b8f6107ed565b73ffffffffffffffffffffffffffffffffffffffff1614610bee57610bb26109cd565b6040517f118cdaa7000000000000000000000000000000000000000000000000000000008152600401610be591906113bd565b60405180910390fd5b565b5f73ffffffffffffffffffffffffffffffffffffffff168273ffffffffffffffffffffffffffffffffffffffff1603610c60575f6040517f96c6fd1e000000000000000000000000000000000000000000000000000000008152600401610c5791906113bd565b60405180910390fd5b610c6b825f83610f01565b5050565b5f60055f9054906101000a900473ffffffffffffffffffffffffffffffffffffffff1690508160055f6101000a81548173ffffffffffffffffffffffffffffffffffffffff021916908373ffffffffffffffffffffffffffffffffffffffff1602179055508173ffffffffffffffffffffffffffffffffffffffff168173ffffffffffffffffffffffffffffffffffffffff167f8be0079c531659141344cd1fd0a4f28419497f9722a3daafe3b4186f6b6457e060405160405180910390a35050565b5f73ffffffffffffffffffffffffffffffffffffffff168473ffffffffffffffffffffffffffffffffffffffff1603610da2575f6040517fe602df05000000000000000000000000000000000000000000000000000000008152600401610d9991906113bd565b60405180910390fd5b5f73ffffffffffffffffffffffffffffffffffffffff168373ffffffffffffffffffffffffffffffffffffffff1603610e12575f6040517f94280d62000000000000000000000000000000000000000000000000000000008152600401610e0991906113bd565b60405180910390fd5b8160015f8673ffffffffffffffffffffffffffffffffffffffff1673ffffffffffffffffffffffffffffffffffffffff1681526020019081526020015f205f8573ffffffffffffffffffffffffffffffffffffffff1673ffffffffffffffffffffffffffffffffffffffff1681526020019081526020015f20819055508015610efb578273ffffffffffffffffffffffffffffffffffffffff168473ffffffffffffffffffffffffffffffffffffffff167f8c5be1e5ebec7d5bd14f71427d1e84f3dd0314c0f7b2291e5b200ac8c7c3b92584604051610ef291906112bb565b60405180910390a35b50505050565b5f73ffffffffffffffffffffffffffffffffffffffff168373ffffffffffffffffffffffffffffffffffffffff1603610f51578060025f828254610f459190611673565b9250508190555061101f565b5f5f5f8573ffffffffffffffffffffffffffffffffffffffff1673ffffffffffffffffffffffffffffffffffffffff1681526020019081526020015f2054905081811015610fda578381836040517fe450d38c000000000000000000000000000000000000000000000000000000008152600401610fd193929190611611565b60405180910390fd5b8181035f5f8673ffffffffffffffffffffffffffffffffffffffff1673ffffffffffffffffffffffffffffffffffffffff1681526020019081526020015f2081905550505b5f73ffffffffffffffffffffffffffffffffffffffff168273ffffffffffffffffffffffffffffffffffffffff1603611066578060025f82825403925050819055506110b0565b805f5f8473ffffffffffffffffffffffffffffffffffffffff1673ffffffffffffffffffffffffffffffffffffffff1681526020019081526020015f205f82825401925050819055505b8173ffffffffffffffffffffffffffffffffffffffff168373ffffffffffffffffffffffffffffffffffffffff167fddf252ad1be2c89b69c2b068fc378daa952ba7f163c4a11628f55a4df523b3ef8360405161110d91906112bb565b60405180910390a3505050565b5f81519050919050565b5f82825260208201905092915050565b8281835e5f83830152505050565b5f601f19601f8301169050919050565b5f61115c8261111a565b6111668185611124565b9350611176818560208601611134565b61117f81611142565b840191505092915050565b5f6020820190508181035f8301526111a28184611152565b905092915050565b5f5ffd5b5f73ffffffffffffffffffffffffffffffffffffffff82169050919050565b5f6111d7826111ae565b9050919050565b6111e7816111cd565b81146111f1575f5ffd5b50565b5f81359050611202816111de565b92915050565b5f819050919050565b61121a81611208565b8114611224575f5ffd5b50565b5f8135905061123581611211565b92915050565b5f5f60408385031215611251576112506111aa565b5b5f61125e858286016111f4565b925050602061126f85828601611227565b9150509250929050565b5f8115159050919050565b61128d81611279565b82525050565b5f6020820190506112a65f830184611284565b92915050565b6112b581611208565b82525050565b5f6020820190506112ce5f8301846112ac565b92915050565b5f602082840312156112e9576112e86111aa565b5b5f6112f6848285016111f4565b91505092915050565b5f5f5f60608486031215611316576113156111aa565b5b5f611323868287016111f4565b9350506020611334868287016111f4565b925050604061134586828701611227565b9150509250925092565b5f60ff82169050919050565b6113648161134f565b82525050565b5f60208201905061137d5f83018461135b565b92915050565b5f60208284031215611398576113976111aa565b5b5f6113a584828501611227565b91505092915050565b6113b7816111cd565b82525050565b5f6020820190506113d05f8301846113ae565b92915050565b5f5f604083850312156113ec576113eb6111aa565b5b5f6113f9858286016111f4565b925050602061140a858286016111f4565b9150509250929050565b7f4e487b71000000000000000000000000000000000000000000000000000000005f52602260045260245ffd5b5f600282049050600182168061145857607f821691505b60208210810361146b5761146a611414565b5b50919050565b7f55736572206e6f7420617574686f72697a6564000000000000000000000000005f82015250565b5f6114a5601383611124565b91506114b082611471565b602082019050919050565b5f6020820190508181035f8301526114d281611499565b9050919050565b7f496e76616c696420726563697069656e742061646472657373000000000000005f82015250565b5f61150d601983611124565b9150611518826114d9565b602082019050919050565b5f6020820190508181035f83015261153a81611501565b9050919050565b7f496e73756666696369656e742062616c616e63650000000000000000000000005f82015250565b5f611575601483611124565b915061158082611541565b602082019050919050565b5f6020820190508181035f8301526115a281611569565b9050919050565b7f496e76616c6964206164647265737300000000000000000000000000000000005f82015250565b5f6115dd600f83611124565b91506115e8826115a9565b602082019050919050565b5f6020820190508181035f83015261160a816115d1565b9050919050565b5f6060820190506116245f8301866113ae565b61163160208301856112ac565b61163e60408301846112ac565b949350505050565b7f4e487b71000000000000000000000000000000000000000000000000000000005f52601160045260245ffd5b5f61167d82611208565b915061168883611208565b92508282019050808211156116a05761169f611646565b5b9291505056fea26469706673582212201a83155a20a864ec3c20e2e5715a866acd67354dd85b277aefe60690e310712264736f6c634300081c0033","linkReferences":{}},"methodIdentifiers":{"allowance(address,address)":"dd62ed3e","approve(address,uint256)":"095ea7b3","authorizeUser(address)":"67c2a360","authorizedUsers(address)":"1828983a","balanceOf(address)":"70a08231","burn(uint256)":"42966c68","decimals()":"313ce567","name()":"06fdde03","owner()":"8da5cb5b","renounceOwnership()":"715018a6","symbol()":"95d89b41","totalSupply()":"18160ddd","transfer(address,uint256)":"a9059cbb","transferFrom(address,address,uint256)":"23b872dd","transferFromOwnerOnLogin(address,uint256)":"2610b067","transferOwnership(address)":"f2fde38b"},"id":10}