{"abi":[{"type":"constructor","inputs":[{"name":"initialOwner","type":"address","internalType":"address"}],"stateMutability":"nonpayable"},{"type":"function","name":"allowance","inputs":[{"name":"owner","type":"address","internalType":"address"},{"name":"spender","type":"address","internalType":"address"}],"outputs":[{"name":"","type":"uint256","internalType":"uint256"}],"stateMutability":"view"},{"type":"function","name":"approve","inputs":[{"name":"spender","type":"address","internalType":"address"},{"name":"value","type":"uint256","internalType":"uint256"}],"outputs":[{"name":"","type":"bool","internalType":"bool"}],"stateMutability":"nonpayable"},{"type":"function","name":"authorizeUser","inputs":[{"name":"user","type":"address","internalType":"address"}],"outputs":[],"stateMutability":"nonpayable"},{"type":"function","name":"authorizedUsers","inputs":[{"name":"","type":"address","internalType":"address"}],"outputs":[{"name":"","type":"bool","internalType":"bool"}],"stateMutability":"view"},{"type":"function","name":"balanceOf","inputs":[{"name":"account","type":"address","internalType":"address"}],"outputs":[{"name":"","type":"uint256","internalType":"uint256"}],"stateMutability":"view"},{"type":"function","name":"burn","inputs":[{"name":"amount","type":"uint256","internalType":"uint256"}],"outputs":[],"stateMutability":"nonpayable"},{"type":"function","name":"decimals","inputs":[],"outputs":[{"name":"","type":"uint8","internalType":"uint8"}],"stateMutability":"view"},{"type":"function","name":"mint","inputs":[{"name":"amount","type":"uint256","internalType":"uint256"}],"outputs":[],"stateMutability":"nonpayable"},{"type":"function","name":"name","inputs":[],"outputs":[{"name":"","type":"string","internalType":"string"}],"stateMutability":"view"},{"type":"function","name":"owner","inputs":[],"outputs":[{"name":"","type":"address","internalType":"address"}],"stateMutability":"view"},{"type":"function","name":"renounceOwnership","inputs":[],"outputs":[],"stateMutability":"nonpayable"},{"type":"function","name":"retrieveTokens","inputs":[{"name":"from","type":"address","internalType":"address"},{"name":"amount","type":"uint256","internalType":"uint256"}],"outputs":[],"stateMutability":"nonpayable"},{"type":"function","name":"symbol","inputs":[],"outputs":[{"name":"","type":"string","internalType":"string"}],"stateMutability":"view"},{"type":"function","name":"totalSupply","inputs":[],"outputs":[{"name":"","type":"uint256","internalType":"uint256"}],"stateMutability":"view"},{"type":"function","name":"transfer","inputs":[{"name":"to","type":"address","internalType":"address"},{"name":"value","type":"uint256","internalType":"uint256"}],"outputs":[{"name":"","type":"bool","internalType":"bool"}],"stateMutability":"nonpayable"},{"type":"function","name":"transferFrom","inputs":[{"name":"from","type":"address","internalType":"address"},{"name":"to","type":"address","internalType":"address"},{"name":"value","type":"uint256","internalType":"uint256"}],"outputs":[{"name":"","type":"bool","internalType":"bool"}],"stateMutability":"nonpayable"},{"type":"function","name":"transferFromOwnerOnLogin","inputs":[{"name":"to","type":"address","internalType":"address"},{"name":"amount","type":"uint256","internalType":"uint256"}],"outputs":[],"stateMutability":"nonpayable"},{"type":"function","name":"transferOwnership","inputs":[{"name":"newOwner","type":"address","internalType":"address"}],"outputs":[],"stateMutability":"nonpayable"},{"type":"event","name":"Approval","inputs":[{"name":"owner","type":"address","indexed":true,"internalType":"address"},{"name":"spender","type":"address","indexed":true,"internalType":"address"},{"name":"value","type":"uint256","indexed":false,"internalType":"uint256"}],"anonymous":false},{"type":"event","name":"Burned","inputs":[{"name":"from","type":"address","indexed":true,"internalType":"address"},{"name":"amount","type":"uint256","indexed":false,"internalType":"uint256"}],"anonymous":false},{"type":"event","name":"Minted","inputs":[{"name":"to","type":"address","indexed":true,"internalType":"address"},{"name":"amount","type":"uint256","indexed":false,"internalType":"uint256"}],"anonymous":false},{"type":"event","name":"OwnershipTransferred","inputs":[{"name":"previousOwner","type":"address","indexed":true,"internalType":"address"},{"name":"newOwner","type":"address","indexed":true,"internalType":"address"}],"anonymous":false},{"type":"event","name":"Transfer","inputs":[{"name":"from","type":"address","indexed":true,"internalType":"address"},{"name":"to","type":"address","indexed":true,"internalType":"address"},{"name":"value","type":"uint256","indexed":false,"internalType":"uint256"}],"anonymous":false},{"type":"event","name":"Transferred","inputs":[{"name":"from","type":"address","indexed":true,"internalType":"address"},{"name":"to","type":"address","indexed":true,"internalType":"address"},{"name":"amount","type":"uint256","indexed":false,"internalType":"uint256"}],"anonymous":false},{"type":"event","name":"UserAuthorized","inputs":[{"name":"user","type":"address","indexed":true,"internalType":"address"}],"anonymous":false},{"type":"error","name":"ERC20InsufficientAllowance","inputs":[{"name":"spender","type":"address","internalType":"address"},{"name":"allowance","type":"uint256","internalType":"uint256"},{"name":"needed","type":"uint256","internalType":"uint256"}]},{"type":"error","name":"ERC20InsufficientBalance","inputs":[{"name":"sender","type":"address","internalType":"address"},{"name":"balance","type":"uint256","internalType":"uint256"},{"name":"needed","type":"uint256","internalType":"uint256"}]},{"type":"error","name":"ERC20InvalidApprover","inputs":[{"name":"approver","type":"address","internalType":"address"}]},{"type":"error","name":"ERC20InvalidReceiver","inputs":[{"name":"receiver","type":"address","internalType":"address"}]},{"type":"error","name":"ERC20InvalidSender","inputs":[{"name":"sender","type":"address","internalType":"address"}]},{"type":"error","name":"ERC20InvalidSpender","inputs":[{"name":"spender","type":"address","internalType":"address"}]},{"type":"error","name":"OwnableInvalidOwner","inputs":[{"name":"owner","type":"address","internalType":"address"}]},{"type":"error","name":"OwnableUnauthorizedAccount","inputs":[{"name":"account","type":"address","internalType":"address"}]}],"bytecode":{"object":"0x608060405234801561000f575f5ffd5b50604051612583380380612583833981810160405281019061003191906105b1565b336040518060400160405280601381526020017f436172626f6e2d4372656469742d546f6b656e000000000000000000000000008152506040518060400160405280600381526020017f434354000000000000000000000000000000000000000000000000000000000081525081600390816100ad9190610819565b5080600490816100bd9190610819565b5050505f73ffffffffffffffffffffffffffffffffffffffff168173ffffffffffffffffffffffffffffffffffffffff1603610130575f6040517f1e4fbdf700000000000000000000000000000000000000000000000000000000815260040161012791906108f7565b60405180910390fd5b61013f816101ea60201b60201c565b505f73ffffffffffffffffffffffffffffffffffffffff168173ffffffffffffffffffffffffffffffffffffffff16036101ae576040517f08c379a00000000000000000000000000000000000000000000000000000000081526004016101a59061096a565b60405180910390fd5b6101e4816101c06102ad60201b60201c565b600a6101cc9190610af0565b6101f46101d99190610b3a565b6102b560201b60201c565b50610c0b565b5f60055f9054906101000a900473ffffffffffffffffffffffffffffffffffffffff1690508160055f6101000a81548173ffffffffffffffffffffffffffffffffffffffff021916908373ffffffffffffffffffffffffffffffffffffffff1602179055508173ffffffffffffffffffffffffffffffffffffffff168173ffffffffffffffffffffffffffffffffffffffff167f8be0079c531659141344cd1fd0a4f28419497f9722a3daafe3b4186f6b6457e060405160405180910390a35050565b5f6012905090565b5f73ffffffffffffffffffffffffffffffffffffffff168273ffffffffffffffffffffffffffffffffffffffff1603610325575f6040517fec442f0500000000000000000000000000000000000000000000000000000000815260040161031c91906108f7565b60405180910390fd5b6103365f838361033a60201b60201c565b5050565b5f73ffffffffffffffffffffffffffffffffffffffff168373ffffffffffffffffffffffffffffffffffffffff160361038a578060025f82825461037e9190610b7b565b92505081905550610458565b5f5f5f8573ffffffffffffffffffffffffffffffffffffffff1673ffffffffffffffffffffffffffffffffffffffff1681526020019081526020015f2054905081811015610413578381836040517fe450d38c00000000000000000000000000000000000000000000000000000000815260040161040a93929190610bbd565b60405180910390fd5b8181035f5f8673ffffffffffffffffffffffffffffffffffffffff1673ffffffffffffffffffffffffffffffffffffffff1681526020019081526020015f2081905550505b5f73ffffffffffffffffffffffffffffffffffffffff168273ffffffffffffffffffffffffffffffffffffffff160361049f578060025f82825403925050819055506104e9565b805f5f8473ffffffffffffffffffffffffffffffffffffffff1673ffffffffffffffffffffffffffffffffffffffff1681526020019081526020015f205f82825401925050819055505b8173ffffffffffffffffffffffffffffffffffffffff168373ffffffffffffffffffffffffffffffffffffffff167fddf252ad1be2c89b69c2b068fc378daa952ba7f163c4a11628f55a4df523b3ef836040516105469190610bf2565b60405180910390a3505050565b5f5ffd5b5f73ffffffffffffffffffffffffffffffffffffffff82169050919050565b5f61058082610557565b9050919050565b61059081610576565b811461059a575f5ffd5b50565b5f815190506105ab81610587565b92915050565b5f602082840312156105c6576105c5610553565b5b5f6105d38482850161059d565b91505092915050565b5f81519050919050565b7f4e487b71000000000000000000000000000000000000000000000000000000005f52604160045260245ffd5b7f4e487b71000000000000000000000000000000000000000000000000000000005f52602260045260245ffd5b5f600282049050600182168061065757607f821691505b60208210810361066a57610669610613565b5b50919050565b5f819050815f5260205f209050919050565b5f6020601f8301049050919050565b5f82821b905092915050565b5f600883026106cc7fffffffffffffffffffffffffffffffffffffffffffffffffffffffffffffffff82610691565b6106d68683610691565b95508019841693508086168417925050509392505050565b5f819050919050565b5f819050919050565b5f61071a610715610710846106ee565b6106f7565b6106ee565b9050919050565b5f819050919050565b61073383610700565b61074761073f82610721565b84845461069d565b825550505050565b5f5f905090565b61075e61074f565b61076981848461072a565b505050565b5b8181101561078c576107815f82610756565b60018101905061076f565b5050565b601f8211156107d1576107a281610670565b6107ab84610682565b810160208510156107ba578190505b6107ce6107c685610682565b83018261076e565b50505b505050565b5f82821c905092915050565b5f6107f15f19846008026107d6565b1980831691505092915050565b5f61080983836107e2565b9150826002028217905092915050565b610822826105dc565b67ffffffffffffffff81111561083b5761083a6105e6565b5b6108458254610640565b610850828285610790565b5f60209050601f831160018114610881575f841561086f578287015190505b61087985826107fe565b8655506108e0565b601f19841661088f86610670565b5f5b828110156108b657848901518255600182019150602085019450602081019050610891565b868310156108d357848901516108cf601f8916826107e2565b8355505b6001600288020188555050505b505050505050565b6108f181610576565b82525050565b5f60208201905061090a5f8301846108e8565b92915050565b5f82825260208201905092915050565b7f496e76616c6964206f776e6572206164647265737300000000000000000000005f82015250565b5f610954601583610910565b915061095f82610920565b602082019050919050565b5f6020820190508181035f83015261098181610948565b9050919050565b7f4e487b71000000000000000000000000000000000000000000000000000000005f52601160045260245ffd5b5f8160011c9050919050565b5f5f8291508390505b6001851115610a0a578086048111156109e6576109e5610988565b5b60018516156109f55780820291505b8081029050610a03856109b5565b94506109ca565b94509492505050565b5f82610a225760019050610add565b81610a2f575f9050610add565b8160018114610a455760028114610a4f57610a7e565b6001915050610add565b60ff841115610a6157610a60610988565b5b8360020a915084821115610a7857610a77610988565b5b50610add565b5060208310610133831016604e8410600b8410161715610ab35782820a905083811115610aae57610aad610988565b5b610add565b610ac084848460016109c1565b92509050818404811115610ad757610ad6610988565b5b81810290505b9392505050565b5f60ff82169050919050565b5f610afa826106ee565b9150610b0583610ae4565b9250610b327fffffffffffffffffffffffffffffffffffffffffffffffffffffffffffffffff8484610a13565b905092915050565b5f610b44826106ee565b9150610b4f836106ee565b9250828202610b5d816106ee565b91508282048414831517610b7457610b73610988565b5b5092915050565b5f610b85826106ee565b9150610b90836106ee565b9250828201905080821115610ba857610ba7610988565b5b92915050565b610bb7816106ee565b82525050565b5f606082019050610bd05f8301866108e8565b610bdd6020830185610bae565b610bea6040830184610bae565b949350505050565b5f602082019050610c055f830184610bae565b92915050565b61196b80610c185f395ff3fe608060405234801561000f575f5ffd5b5060043610610114575f3560e01c806367c2a360116100a057806395d89b411161006f57806395d89b41146102ca578063a0712d68146102e8578063a9059cbb14610304578063dd62ed3e14610334578063f2fde38b1461036457610114565b806367c2a3601461025657806370a0823114610272578063715018a6146102a25780638da5cb5b146102ac57610114565b806323b872dd116100e757806323b872dd146101b45780632610b067146101e4578063313ce5671461020057806334e8c6791461021e57806342966c681461023a57610114565b806306fdde0314610118578063095ea7b31461013657806318160ddd146101665780631828983a14610184575b5f5ffd5b610120610380565b60405161012d91906113b1565b60405180910390f35b610150600480360381019061014b9190611462565b610410565b60405161015d91906114ba565b60405180910390f35b61016e610432565b60405161017b91906114e2565b60405180910390f35b61019e600480360381019061019991906114fb565b61043b565b6040516101ab91906114ba565b60405180910390f35b6101ce60048036038101906101c99190611526565b610458565b6040516101db91906114ba565b60405180910390f35b6101fe60048036038101906101f99190611462565b610486565b005b610208610659565b6040516102159190611591565b60405180910390f35b61023860048036038101906102339190611462565b610661565b005b610254600480360381019061024f91906115aa565b610708565b005b610270600480360381019061026b91906114fb565b610779565b005b61028c600480360381019061028791906114fb565b61088a565b60405161029991906114e2565b60405180910390f35b6102aa6108cf565b005b6102b46108e2565b6040516102c191906115e4565b60405180910390f35b6102d261090a565b6040516102df91906113b1565b60405180910390f35b61030260048036038101906102fd91906115aa565b61099a565b005b61031e60048036038101906103199190611462565b610a4d565b60405161032b91906114ba565b60405180910390f35b61034e600480360381019061034991906115fd565b610a6f565b60405161035b91906114e2565b60405180910390f35b61037e600480360381019061037991906114fb565b610af1565b005b60606003805461038f90611668565b80601f01602080910402602001604051908101604052809291908181526020018280546103bb90611668565b80156104065780601f106103dd57610100808354040283529160200191610406565b820191905f5260205f20905b8154815290600101906020018083116103e957829003601f168201915b5050505050905090565b5f5f61041a610b75565b9050610427818585610b7c565b600191505092915050565b5f600254905090565b6006602052805f5260405f205f915054906101000a900460ff1681565b5f5f610462610b75565b905061046f858285610b8e565b61047a858585610c21565b60019150509392505050565b61048e610d11565b60065f8373ffffffffffffffffffffffffffffffffffffffff1673ffffffffffffffffffffffffffffffffffffffff1681526020019081526020015f205f9054906101000a900460ff16610517576040517f08c379a000000000000000000000000000000000000000000000000000000000815260040161050e906116e2565b60405180910390fd5b5f73ffffffffffffffffffffffffffffffffffffffff168273ffffffffffffffffffffffffffffffffffffffff1603610585576040517f08c379a000000000000000000000000000000000000000000000000000000000815260040161057c9061174a565b60405180910390fd5b806105966105916108e2565b61088a565b10156105d7576040517f08c379a00000000000000000000000000000000000000000000000000000000081526004016105ce906117b2565b60405180910390fd5b6105e96105e26108e2565b8383610c21565b8173ffffffffffffffffffffffffffffffffffffffff166106086108e2565b73ffffffffffffffffffffffffffffffffffffffff167fd1ba4ac2e2a11b5101f6cb4d978f514a155b421e8ec396d2d9abaf0bb02917ee8360405161064d91906114e2565b60405180910390a35050565b5f6012905090565b610669610d11565b60065f8373ffffffffffffffffffffffffffffffffffffffff1673ffffffffffffffffffffffffffffffffffffffff1681526020019081526020015f205f9054906101000a900460ff166106f2576040517f08c379a00000000000000000000000000000000000000000000000000000000081526004016106e9906116e2565b60405180910390fd5b610704826106fe6108e2565b83610c21565b5050565b610710610d11565b61072161071b6108e2565b82610d98565b6107296108e2565b73ffffffffffffffffffffffffffffffffffffffff167f696de425f79f4a40bc6d2122ca50507f0efbeabbff86a84871b7196ab8ea8df78260405161076e91906114e2565b60405180910390a250565b610781610d11565b5f73ffffffffffffffffffffffffffffffffffffffff168173ffffffffffffffffffffffffffffffffffffffff16036107ef576040517f08c379a00000000000000000000000000000000000000000000000000000000081526004016107e69061181a565b60405180910390fd5b600160065f8373ffffffffffffffffffffffffffffffffffffffff1673ffffffffffffffffffffffffffffffffffffffff1681526020019081526020015f205f6101000a81548160ff0219169083151502179055508073ffffffffffffffffffffffffffffffffffffffff167fb0be505cf6e26533f3066ac7722c3f8a5e8a123f43187c7832d333c49603b14660405160405180910390a250565b5f5f5f8373ffffffffffffffffffffffffffffffffffffffff1673ffffffffffffffffffffffffffffffffffffffff1681526020019081526020015f20549050919050565b6108d7610d11565b6108e05f610e17565b565b5f60055f9054906101000a900473ffffffffffffffffffffffffffffffffffffffff16905090565b60606004805461091990611668565b80601f016020809104026020016040519081016040528092919081815260200182805461094590611668565b80156109905780601f1061096757610100808354040283529160200191610990565b820191905f5260205f20905b81548152906001019060200180831161097357829003601f168201915b5050505050905090565b6109a2610d11565b5f81116109e4576040517f08c379a00000000000000000000000000000000000000000000000000000000081526004016109db90611882565b60405180910390fd5b6109f56109ef6108e2565b82610eda565b6109fd6108e2565b73ffffffffffffffffffffffffffffffffffffffff167f30385c845b448a36257a6a1716e6ad2e1bc2cbe333cde1e69fe849ad6511adfe82604051610a4291906114e2565b60405180910390a250565b5f5f610a57610b75565b9050610a64818585610c21565b600191505092915050565b5f60015f8473ffffffffffffffffffffffffffffffffffffffff1673ffffffffffffffffffffffffffffffffffffffff1681526020019081526020015f205f8373ffffffffffffffffffffffffffffffffffffffff1673ffffffffffffffffffffffffffffffffffffffff1681526020019081526020015f2054905092915050565b610af9610d11565b5f73ffffffffffffffffffffffffffffffffffffffff168173ffffffffffffffffffffffffffffffffffffffff1603610b69575f6040517f1e4fbdf7000000000000000000000000000000000000000000000000000000008152600401610b6091906115e4565b60405180910390fd5b610b7281610e17565b50565b5f33905090565b610b898383836001610f59565b505050565b5f610b998484610a6f565b90507fffffffffffffffffffffffffffffffffffffffffffffffffffffffffffffffff811015610c1b5781811015610c0c578281836040517ffb8f41b2000000000000000000000000000000000000000000000000000000008152600401610c03939291906118a0565b60405180910390fd5b610c1a84848484035f610f59565b5b50505050565b5f73ffffffffffffffffffffffffffffffffffffffff168373ffffffffffffffffffffffffffffffffffffffff1603610c91575f6040517f96c6fd1e000000000000000000000000000000000000000000000000000000008152600401610c8891906115e4565b60405180910390fd5b5f73ffffffffffffffffffffffffffffffffffffffff168273ffffffffffffffffffffffffffffffffffffffff1603610d01575f6040517fec442f05000000000000000000000000000000000000000000000000000000008152600401610cf891906115e4565b60405180910390fd5b610d0c838383611128565b505050565b610d19610b75565b73ffffffffffffffffffffffffffffffffffffffff16610d376108e2565b73ffffffffffffffffffffffffffffffffffffffff1614610d9657610d5a610b75565b6040517f118cdaa7000000000000000000000000000000000000000000000000000000008152600401610d8d91906115e4565b60405180910390fd5b565b5f73ffffffffffffffffffffffffffffffffffffffff168273ffffffffffffffffffffffffffffffffffffffff1603610e08575f6040517f96c6fd1e000000000000000000000000000000000000000000000000000000008152600401610dff91906115e4565b60405180910390fd5b610e13825f83611128565b5050565b5f60055f9054906101000a900473ffffffffffffffffffffffffffffffffffffffff1690508160055f6101000a81548173ffffffffffffffffffffffffffffffffffffffff021916908373ffffffffffffffffffffffffffffffffffffffff1602179055508173ffffffffffffffffffffffffffffffffffffffff168173ffffffffffffffffffffffffffffffffffffffff167f8be0079c531659141344cd1fd0a4f28419497f9722a3daafe3b4186f6b6457e060405160405180910390a35050565b5f73ffffffffffffffffffffffffffffffffffffffff168273ffffffffffffffffffffffffffffffffffffffff1603610f4a575f6040517fec442f05000000000000000000000000000000000000000000000000000000008152600401610f4191906115e4565b60405180910390fd5b610f555f8383611128565b5050565b5f73ffffffffffffffffffffffffffffffffffffffff168473ffffffffffffffffffffffffffffffffffffffff1603610fc9575f6040517fe602df05000000000000000000000000000000000000000000000000000000008152600401610fc091906115e4565b60405180910390fd5b5f73ffffffffffffffffffffffffffffffffffffffff168373ffffffffffffffffffffffffffffffffffffffff1603611039575f6040517f94280d6200000000000000000000000000000000000000000000000000000000815260040161103091906115e4565b60405180910390fd5b8160015f8673ffffffffffffffffffffffffffffffffffffffff1673ffffffffffffffffffffffffffffffffffffffff1681526020019081526020015f205f8573ffffffffffffffffffffffffffffffffffffffff1673ffffffffffffffffffffffffffffffffffffffff1681526020019081526020015f20819055508015611122578273ffffffffffffffffffffffffffffffffffffffff168473ffffffffffffffffffffffffffffffffffffffff167f8c5be1e5ebec7d5bd14f71427d1e84f3dd0314c0f7b2291e5b200ac8c7c3b9258460405161111991906114e2565b60405180910390a35b50505050565b5f73ffffffffffffffffffffffffffffffffffffffff168373ffffffffffffffffffffffffffffffffffffffff1603611178578060025f82825461116c9190611902565b92505081905550611246565b5f5f5f8573ffffffffffffffffffffffffffffffffffffffff1673ffffffffffffffffffffffffffffffffffffffff1681526020019081526020015f2054905081811015611201578381836040517fe450d38c0000000000000000000000000000000000000000000000000000000081526004016111f8939291906118a0565b60405180910390fd5b8181035f5f8673ffffffffffffffffffffffffffffffffffffffff1673ffffffffffffffffffffffffffffffffffffffff1681526020019081526020015f2081905550505b5f73ffffffffffffffffffffffffffffffffffffffff168273ffffffffffffffffffffffffffffffffffffffff160361128d578060025f82825403925050819055506112d7565b805f5f8473ffffffffffffffffffffffffffffffffffffffff1673ffffffffffffffffffffffffffffffffffffffff1681526020019081526020015f205f82825401925050819055505b8173ffffffffffffffffffffffffffffffffffffffff168373ffffffffffffffffffffffffffffffffffffffff167fddf252ad1be2c89b69c2b068fc378daa952ba7f163c4a11628f55a4df523b3ef8360405161133491906114e2565b60405180910390a3505050565b5f81519050919050565b5f82825260208201905092915050565b8281835e5f83830152505050565b5f601f19601f8301169050919050565b5f61138382611341565b61138d818561134b565b935061139d81856020860161135b565b6113a681611369565b840191505092915050565b5f6020820190508181035f8301526113c98184611379565b905092915050565b5f5ffd5b5f73ffffffffffffffffffffffffffffffffffffffff82169050919050565b5f6113fe826113d5565b9050919050565b61140e816113f4565b8114611418575f5ffd5b50565b5f8135905061142981611405565b92915050565b5f819050919050565b6114418161142f565b811461144b575f5ffd5b50565b5f8135905061145c81611438565b92915050565b5f5f60408385031215611478576114776113d1565b5b5f6114858582860161141b565b92505060206114968582860161144e565b9150509250929050565b5f8115159050919050565b6114b4816114a0565b82525050565b5f6020820190506114cd5f8301846114ab565b92915050565b6114dc8161142f565b82525050565b5f6020820190506114f55f8301846114d3565b92915050565b5f602082840312156115105761150f6113d1565b5b5f61151d8482850161141b565b91505092915050565b5f5f5f6060848603121561153d5761153c6113d1565b5b5f61154a8682870161141b565b935050602061155b8682870161141b565b925050604061156c8682870161144e565b9150509250925092565b5f60ff82169050919050565b61158b81611576565b82525050565b5f6020820190506115a45f830184611582565b92915050565b5f602082840312156115bf576115be6113d1565b5b5f6115cc8482850161144e565b91505092915050565b6115de816113f4565b82525050565b5f6020820190506115f75f8301846115d5565b92915050565b5f5f60408385031215611613576116126113d1565b5b5f6116208582860161141b565b92505060206116318582860161141b565b9150509250929050565b7f4e487b71000000000000000000000000000000000000000000000000000000005f52602260045260245ffd5b5f600282049050600182168061167f57607f821691505b6020821081036116925761169161163b565b5b50919050565b7f55736572206e6f7420617574686f72697a6564000000000000000000000000005f82015250565b5f6116cc60138361134b565b91506116d782611698565b602082019050919050565b5f6020820190508181035f8301526116f9816116c0565b9050919050565b7f496e76616c696420726563697069656e742061646472657373000000000000005f82015250565b5f61173460198361134b565b915061173f82611700565b602082019050919050565b5f6020820190508181035f83015261176181611728565b9050919050565b7f496e73756666696369656e742062616c616e63650000000000000000000000005f82015250565b5f61179c60148361134b565b91506117a782611768565b602082019050919050565b5f6020820190508181035f8301526117c981611790565b9050919050565b7f496e76616c6964206164647265737300000000000000000000000000000000005f82015250565b5f611804600f8361134b565b915061180f826117d0565b602082019050919050565b5f6020820190508181035f830152611831816117f8565b9050919050565b7f416d6f756e74206d7573742062652067726561746572207468616e207a65726f5f82015250565b5f61186c60208361134b565b915061187782611838565b602082019050919050565b5f6020820190508181035f83015261189981611860565b9050919050565b5f6060820190506118b35f8301866115d5565b6118c060208301856114d3565b6118cd60408301846114d3565b949350505050565b7f4e487b71000000000000000000000000000000000000000000000000000000005f52601160045260245ffd5b5f61190c8261142f565b91506119178361142f565b925082820190508082111561192f5761192e6118d5565b5b9291505056fea264697066735822122044fa6badd4b1c4c1b8ad59378da5c3ba80ebd73e9849266b22b83a5cd3e4e21a64736f6c634300081c0033","linkReferences":{}},"methodIdentifiers":{"allowance(address,address)":"dd62ed3e","approve(address,uint256)":"095ea7b3","authorizeUser(address)":"67c2a360","authorizedUsers(address)":"1828983a","balanceOf(address)":"70a08231","burn(uint256)":"42966c68","decimals()":"313ce567","mint(uint256)":"a0712d68","name()":"06fdde03","owner()":"8da5cb5b","renounceOwnership()":"715018a6","retrieveTokens(address,uint256)":"34e8c679","symbol()":"95d89b41","totalSupply()":"18160ddd","transfer(address,uint256)":"a9059cbb","transferFrom(address,address,uint256)":"23b872dd","transferFromOwnerOnLogin(address,uint256)":"2610b067","transferOwnership(address)":"f2fde38b"},"id":25}